:100000000C9461000C9473000C9473000C947300B6
:100010000C9473000C9473000C9473000C94730094
:100020000C9473000C9473000C9473000C94730084
:100030000C9473000C9473000C9473000C94730074
:100040000C9433010C9473000C9473000C947300A3
:100050000C9473000C9473000C9473000C94730054
:100060000C9473000C94730000000000240027001F
:100070002A0000000000250028002B0000000000DE
:1000800023002600290004040404040404040202DA
:100090000202020203030303030301020408102007
:1000A0004080010204081020010204081020000012
:1000B0000008000201000003040700000000000027
:1000C000000011241FBECFEFD8E0DEBFCDBF21E07E
:1000D000A0E0B1E001C01D92A331B207E1F70E9498
:1000E0007D010C9468020C940000833081F028F4A8
:1000F000813099F08230A1F008958730A9F08830DE
:10010000B9F08430D1F4809180008F7D03C080915C
:1001100080008F7780938000089584B58F7702C028
:1001200084B58F7D84BD08958091B0008F7703C022
:100130008091B0008F7D8093B0000895CF93DF93BE
:10014000282F30E0F901E255FF4F8491F901E6567E
:10015000FF4FD491F901EA57FF4FC491CC2391F09E
:1001600081110E947500EC2FF0E0EE0FFF1FE458A4
:10017000FF4FA591B491EC91ED2381E090E021F443
:1001800080E002C080E090E0DF91CF9108951F935E
:10019000CF93DF93282F30E0F901E255FF4F849190
:1001A000F901E656FF4FD491F901EA57FF4FC49188
:1001B000CC23C9F0162F81110E947500EC2FF0E0BE
:1001C000EE0FFF1FEE58FF4FA591B4918FB7F89433
:1001D000111105C09C91ED2FE095E92302C0EC912F
:1001E000ED2BEC938FBFDF91CF911F910895CF93AB
:1001F000DF9390E0FC01E656FF4F2491FC01EA57A3
:10020000FF4F8491882361F190E0880F991FFC01D2
:10021000E859FF4FC591D491FC01EE58FF4FA591CD
:10022000B491611109C09FB7F89488812095822309
:100230008883EC912E230BC0623061F49FB7F89451
:100240003881822F809583238883EC912E2B2C93E9
:100250009FBF06C08FB7F894E8812E2B28838FBFED
:10026000DF91CF9108951F920F920FB60F92112434
:100270002F933F938F939F93AF93BF9380910F01E1
:1002800090911001A0911101B091120130910E01D5
:1002900023E0230F2D3720F40196A11DB11D05C0C9
:1002A00026E8230F0296A11DB11D20930E01809315
:1002B0000F0190931001A0931101B093120180914E
:1002C0000A0190910B01A0910C01B0910D010196D2
:1002D000A11DB11D80930A0190930B01A0930C0105
:1002E000B0930D01BF91AF919F918F913F912F914D
:1002F0000F900FBE0F901F901895789484B5826070
:1003000084BD84B5816084BD85B5826085BD85B5B9
:10031000816085BD80916E00816080936E00109237
:1003200081008091810082608093810080918100B2
:100330008160809381008091800081608093800043
:100340008091B10084608093B1008091B0008160A1
:100350008093B00080917A00846080937A008091CD
:100360007A00826080937A0080917A008160809325
:100370007A0080917A00806880937A001092C100A0
:1003800061E089E00E94F70061E088E00E94F700E8
:1003900061E087E00E94F70060E082E00E94F700E1
:1003A00060E083E00E94F70060E084E00E94F700D4
:1003B00060E085E00E94F70080E0C82E80E0D82E43
:1003C00082E00E949E007C019093090180930801C5
:1003D00083E00E949E008C019093070180930601A8
:1003E00084E00E949E00EC0190930501809304013B
:1003F00085E00E949E00909303018093020121E01A
:10040000E216F104C1F42091000130910101232B87
:1004100009F045C061E089E00E94C70060E088E023
:100420000E94C70060E087E00E94C700F0920101CF
:10043000E092000146C001301105B9F4209100019D
:1004400030910101232B59F560E089E00E94C7003B
:1004500061E088E00E94C70060E087E00E94C7007A
:1004600010930101009300012CC0C130D105B9F4F3
:100470002091000130910101232B89F460E089E093
:100480000E94C70060E088E00E94C70061E087E04A
:100490000E94C700D0930101C093000112C00197D0
:1004A00081F460E089E00E94C70060E088E00E947B
:1004B000C70060E087E00E94C7001092010110921F
:1004C0000001C114D10409F47BCF0E94000078CF51
:0404D000F894FFCFCE
:00000001FF
